{
  "contractName": "File",
  "abi": [
    {
      "inputs": [],
      "payable": false,
      "stateMutability": "nonpayable",
      "type": "constructor"
    },
    {
      "constant": true,
      "inputs": [],
      "name": "RecordsCount",
      "outputs": [
        {
          "internalType": "uint256",
          "name": "",
          "type": "uint256"
        }
      ],
      "payable": false,
      "stateMutability": "view",
      "type": "function"
    },
    {
      "constant": true,
      "inputs": [
        {
          "internalType": "uint256",
          "name": "",
          "type": "uint256"
        }
      ],
      "name": "records",
      "outputs": [
        {
          "internalType": "uint256",
          "name": "UniversityRollno",
          "type": "uint256"
        },
        {
          "internalType": "uint256",
          "name": "ClassRollno",
          "type": "uint256"
        },
        {
          "internalType": "uint256",
          "name": "signatureCount",
          "type": "uint256"
        },
        {
          "internalType": "uint256",
          "name": "Credits",
          "type": "uint256"
        },
        {
          "internalType": "string",
          "name": "StudentName",
          "type": "string"
        },
        {
          "internalType": "string",
          "name": "SGPA",
          "type": "string"
        },
        {
          "internalType": "string",
          "name": "Course",
          "type": "string"
        },
        {
          "internalType": "string",
          "name": "Branch",
          "type": "string"
        },
        {
          "internalType": "address payable",
          "name": "Addr",
          "type": "address"
        },
        {
          "internalType": "bool",
          "name": "isApplied",
          "type": "bool"
        },
        {
          "internalType": "bool",
          "name": "AmountPayed",
          "type": "bool"
        }
      ],
      "payable": false,
      "stateMutability": "view",
      "type": "function"
    },
    {
      "constant": true,
      "inputs": [
        {
          "internalType": "uint256",
          "name": "",
          "type": "uint256"
        }
      ],
      "name": "recordsArr",
      "outputs": [
        {
          "internalType": "uint256",
          "name": "",
          "type": "uint256"
        }
      ],
      "payable": false,
      "stateMutability": "view",
      "type": "function"
    },
    {
      "constant": false,
      "inputs": [
        {
          "internalType": "uint256",
          "name": "_UniversityRollno",
          "type": "uint256"
        },
        {
          "internalType": "uint256",
          "name": "_ClassRollno",
          "type": "uint256"
        },
        {
          "internalType": "uint256",
          "name": "_Credits",
          "type": "uint256"
        },
        {
          "internalType": "string",
          "name": "_StudentName",
          "type": "string"
        },
        {
          "internalType": "string",
          "name": "_SGPA",
          "type": "string"
        },
        {
          "internalType": "string",
          "name": "_Course",
          "type": "string"
        },
        {
          "internalType": "string",
          "name": "_Branch",
          "type": "string"
        }
      ],
      "name": "newRecord",
      "outputs": [],
      "payable": false,
      "stateMutability": "nonpayable",
      "type": "function"
    },
    {
      "constant": false,
      "inputs": [
        {
          "internalType": "uint256",
          "name": "_UniversityRollno",
          "type": "uint256"
        }
      ],
      "name": "signRecord",
      "outputs": [],
      "payable": false,
      "stateMutability": "nonpayable",
      "type": "function"
    },
    {
      "constant": false,
      "inputs": [
        {
          "internalType": "uint256",
          "name": "_UniversityRollno",
          "type": "uint256"
        }
      ],
      "name": "payAmount",
      "outputs": [],
      "payable": true,
      "stateMutability": "payable",
      "type": "function"
    }
  ],
  "bytecode": "0x608060405234801561001057600080fd5b50336000806101000a81548173ffffffffffffffffffffffffffffffffffffffff021916908373ffffffffffffffffffffffffffffffffffffffff1602179055507332072e1111a838879a37b15209b3c77f6531bcda600160006101000a81548173ffffffffffffffffffffffffffffffffffffffff021916908373ffffffffffffffffffffffffffffffffffffffff16021790555073d0e4b87849f7dbd22068b97f28bacf465809649a600260006101000a81548173ffffffffffffffffffffffffffffffffffffffff021916908373ffffffffffffffffffffffffffffffffffffffff16021790555073583dc8754d3e41495a2317de73b1e065d512192f600360006101000a81548173ffffffffffffffffffffffffffffffffffffffff021916908373ffffffffffffffffffffffffffffffffffffffff160217905550610ffe8061015f6000396000f3fe6080604052600436106100555760003560e01c8063344610671461005a578063549b39fc146102b75780635f936256146103065780636c7a2e4f14610334578063a508d0ed1461035f578063b2e0e2151461039a575b600080fd5b34801561006657600080fd5b506100936004803603602081101561007d57600080fd5b8101908080359060200190929190505050610645565b604051808c81526020018b81526020018a8152602001898152602001806020018060200180602001806020018873ffffffffffffffffffffffffffffffffffffffff1673ffffffffffffffffffffffffffffffffffffffff168152602001871515151581526020018615151515815260200185810385528c818151815260200191508051906020019080838360005b8381101561013d578082015181840152602081019050610122565b50505050905090810190601f16801561016a5780820380516001836020036101000a031916815260200191505b5085810384528b818151815260200191508051906020019080838360005b838110156101a3578082015181840152602081019050610188565b50505050905090810190601f1680156101d05780820380516001836020036101000a031916815260200191505b5085810383528a818151815260200191508051906020019080838360005b838110156102095780820151818401526020810190506101ee565b50505050905090810190601f1680156102365780820380516001836020036101000a031916815260200191505b50858103825289818151815260200191508051906020019080838360005b8381101561026f578082015181840152602081019050610254565b50505050905090810190601f16801561029c5780820380516001836020036101000a031916815260200191505b509f5050505050505050505050505050505060405180910390f35b3480156102c357600080fd5b506102f0600480360360208110156102da57600080fd5b8101908080359060200190929190505050610939565b6040518082815260200191505060405180910390f35b6103326004803603602081101561031c57600080fd5b810190808035906020019092919050505061095a565b005b34801561034057600080fd5b50610349610a2b565b6040518082815260200191505060405180910390f35b34801561036b57600080fd5b506103986004803603602081101561038257600080fd5b8101908080359060200190929190505050610a31565b005b3480156103a657600080fd5b50610643600480360360e08110156103bd57600080fd5b81019080803590602001909291908035906020019092919080359060200190929190803590602001906401000000008111156103f857600080fd5b82018360208201111561040a57600080fd5b8035906020019184600183028401116401000000008311171561042c57600080fd5b91908080601f016020809104026020016040519081016040528093929190818152602001838380828437600081840152601f19601f8201169050808301925050505050505091929192908035906020019064010000000081111561048f57600080fd5b8201836020820111156104a157600080fd5b803590602001918460018302840111640100000000831117156104c357600080fd5b91908080601f016020809104026020016040519081016040528093929190818152602001838380828437600081840152601f19601f8201169050808301925050505050505091929192908035906020019064010000000081111561052657600080fd5b82018360208201111561053857600080fd5b8035906020019184600183028401116401000000008311171561055a57600080fd5b91908080601f016020809104026020016040519081016040528093929190818152602001838380828437600081840152601f19601f820116905080830192505050505050509192919290803590602001906401000000008111156105bd57600080fd5b8201836020820111156105cf57600080fd5b803590602001918460018302840111640100000000831117156105f157600080fd5b91908080601f016020809104026020016040519081016040528093929190818152602001838380828437600081840152601f19601f820116905080830192505050505050509192919290505050610c79565b005b6005602052806000526040600020600091509050806000015490806001015490806002015490806003015490806004018054600181600116156101000203166002900480601f0160208091040260200160405190810160405280929190818152602001828054600181600116156101000203166002900480156107095780601f106106de57610100808354040283529160200191610709565b820191906000526020600020905b8154815290600101906020018083116106ec57829003601f168201915b505050505090806005018054600181600116156101000203166002900480601f0160208091040260200160405190810160405280929190818152602001828054600181600116156101000203166002900480156107a75780601f1061077c576101008083540402835291602001916107a7565b820191906000526020600020905b81548152906001019060200180831161078a57829003601f168201915b505050505090806006018054600181600116156101000203166002900480601f0160208091040260200160405190810160405280929190818152602001828054600181600116156101000203166002900480156108455780601f1061081a57610100808354040283529160200191610845565b820191906000526020600020905b81548152906001019060200180831161082857829003601f168201915b505050505090806007018054600181600116156101000203166002900480601f0160208091040260200160405190810160405280929190818152602001828054600181600116156101000203166002900480156108e35780601f106108b8576101008083540402835291602001916108e3565b820191906000526020600020905b8154815290600101906020018083116108c657829003601f168201915b5050505050908060080160009054906101000a900473ffffffffffffffffffffffffffffffffffffffff16908060080160149054906101000a900460ff16908060080160159054906101000a900460ff1690508b565b6006818154811061094657fe5b906000526020600020016000915090505481565b60006005600083815260200190815260200160002090508060080160159054906101000a900460ff161561098d57600080fd5b600381600201541461099e57600080fd5b8060080160009054906101000a900473ffffffffffffffffffffffffffffffffffffffff1673ffffffffffffffffffffffffffffffffffffffff166108fc60059081150290604051600060405180830381858888f19350505050158015610a09573d6000803e3d6000fd5b5060018160080160156101000a81548160ff0219169083151502179055505050565b60045481565b6000809054906101000a900473ffffffffffffffffffffffffffffffffffffffff1673ffffffffffffffffffffffffffffffffffffffff163373ffffffffffffffffffffffffffffffffffffffff161480610ad95750600160009054906101000a900473ffffffffffffffffffffffffffffffffffffffff1673ffffffffffffffffffffffffffffffffffffffff163373ffffffffffffffffffffffffffffffffffffffff16145b80610b315750600260009054906101000a900473ffffffffffffffffffffffffffffffffffffffff1673ffffffffffffffffffffffffffffffffffffffff163373ffffffffffffffffffffffffffffffffffffffff16145b610b3a57600080fd5b60006005600083815260200190815260200160002090508060080160009054906101000a900473ffffffffffffffffffffffffffffffffffffffff1673ffffffffffffffffffffffffffffffffffffffff163373ffffffffffffffffffffffffffffffffffffffff161415610bae57600080fd5b8060090160003373ffffffffffffffffffffffffffffffffffffffff1673ffffffffffffffffffffffffffffffffffffffff16815260200190815260200160002060009054906101000a900460ff1615610c0757600080fd5b60018160090160003373ffffffffffffffffffffffffffffffffffffffff1673ffffffffffffffffffffffffffffffffffffffff16815260200190815260200160002060006101000a81548160ff02191690831515021790555080600201600081548092919060010191905055505050565b60006005600089815260200190815260200160002090506000809054906101000a900473ffffffffffffffffffffffffffffffffffffffff1673ffffffffffffffffffffffffffffffffffffffff163373ffffffffffffffffffffffffffffffffffffffff161415610cea57600080fd5b600160009054906101000a900473ffffffffffffffffffffffffffffffffffffffff1673ffffffffffffffffffffffffffffffffffffffff163373ffffffffffffffffffffffffffffffffffffffff161415610d4557600080fd5b600260009054906101000a900473ffffffffffffffffffffffffffffffffffffffff1673ffffffffffffffffffffffffffffffffffffffff163373ffffffffffffffffffffffffffffffffffffffff161415610da057600080fd5b600360009054906101000a900473ffffffffffffffffffffffffffffffffffffffff1673ffffffffffffffffffffffffffffffffffffffff163373ffffffffffffffffffffffffffffffffffffffff161415610dfb57600080fd5b6005600089815260200190815260200160002060080160149054906101000a900460ff1615610e2957600080fd5b87816000018190555086816001018190555085816003018190555084816004019080519060200190610e5c929190610f24565b5083816005019080519060200190610e75929190610f24565b5082816006019080519060200190610e8e929190610f24565b5081816007019080519060200190610ea7929190610f24565b50338160080160006101000a81548173ffffffffffffffffffffffffffffffffffffffff021916908373ffffffffffffffffffffffffffffffffffffffff16021790555060018160080160146101000a81548160ff0219169083151502179055506004600081548092919060010191905055505050505050505050565b828054600181600116156101000203166002900490600052602060002090601f016020900481019282601f10610f6557805160ff1916838001178555610f93565b82800160010185558215610f93579182015b82811115610f92578251825591602001919060010190610f77565b5b509050610fa09190610fa4565b5090565b610fc691905b80821115610fc2576000816000905550600101610faa565b5090565b9056fea265627a7a7231582007f3744e872e94be15ee5d6f72be222f328d1d4a0b01b0a74ff87f0a775a1b8264736f6c63430005100032",
  "source": "pragma solidity ^0.5.16;\r\n\r\ncontract File{\r\n    address private ClassCordinator;\r\n    address private HOD;\r\n    address private ExaminationCell;\r\n    address payable private  AccountDepartment;\r\n\r\n    struct Record {\r\n        uint256 UniversityRollno;\r\n        uint256 ClassRollno;\r\n        uint256 signatureCount;\r\n        uint256 Credits;\r\n        string StudentName;\r\n        string SGPA;\r\n        string Course;\r\n        string Branch;\r\n        address payable Addr;\r\n        bool isApplied;\r\n        bool AmountPayed;\r\n        //uint256 Scholarship;\r\n        mapping (address => bool) signatures;\r\n    }\r\n\r\n    uint public RecordsCount;\r\n\r\n    modifier signOnly {\r\n        require (msg.sender == ClassCordinator || msg.sender == HOD || msg.sender == ExaminationCell);\r\n        _;\r\n    }\r\n\r\n    constructor() public {\r\n        ClassCordinator = msg.sender;\r\n        HOD=0x32072E1111A838879A37B15209b3c77F6531BCdA;\r\n        ExaminationCell=0xd0E4b87849F7DbD22068b97F28bacf465809649a;\r\n        AccountDepartment=0x583DC8754D3e41495a2317De73b1E065D512192f;\r\n    }\r\n\r\n    mapping (uint256=> Record) public records;\r\n    uint256[] public recordsArr;\r\n\r\n    function newRecord (uint256 _UniversityRollno,uint256 _ClassRollno, uint256 _Credits, string memory _StudentName, string memory _SGPA, string memory _Course, string memory _Branch) public {\r\n        Record storage _newrecord = records[_UniversityRollno];\r\n        require(msg.sender != ClassCordinator);\r\n        require(msg.sender != HOD);\r\n        require(msg.sender != ExaminationCell);\r\n        require(msg.sender != AccountDepartment);\r\n            // Only allows new records to be created\r\n            require(!records[_UniversityRollno].isApplied);\r\n                _newrecord.UniversityRollno=_UniversityRollno;\r\n                _newrecord.ClassRollno=_ClassRollno;\r\n                _newrecord.Credits=_Credits;\r\n                _newrecord.StudentName=_StudentName;\r\n                _newrecord.SGPA=_SGPA;\r\n                _newrecord.Course=_Course;\r\n                _newrecord.Branch=_Branch;\r\n                _newrecord.Addr = msg.sender;\r\n                _newrecord.isApplied=true;\r\n                //_newrecord.Scholarship=0;\r\n\r\n        RecordsCount ++;\r\n    }\r\n\r\n    function signRecord(uint256 _UniversityRollno) signOnly public {\r\n        Record storage _OldRecord = records[_UniversityRollno];\r\n\r\n        // Checks the aunthenticity of the address signing it\r\n        require(msg.sender != _OldRecord.Addr);\r\n\r\n        // Doesn't allow the same person to sign twice\r\n        require(!_OldRecord.signatures[msg.sender]);\r\n\r\n        _OldRecord.signatures[msg.sender] = true;\r\n        _OldRecord.signatureCount++;\r\n    }\r\n\r\n    function payAmount(uint256 _UniversityRollno) payable public {\r\n        Record storage _OldRecord = records[_UniversityRollno];\r\n        require(!_OldRecord.AmountPayed);\r\n        require(_OldRecord.signatureCount==3);\r\n        address(_OldRecord.Addr).transfer(5);\r\n        _OldRecord.AmountPayed=true;\r\n        //_OldRecord.Scholarship=_OldRecord.Scholarship + 5;\r\n    }\r\n}\r\n",
  "sourcePath": "F:/blockchain/college block/contracts/Scholarship.sol",
  "compiler": {
    "name": "solc",
    "version": "0.5.16+commit.9c3226ce.Emscripten.clang"
  },
  "schemaVersion": "3.2.3",
  "updatedAt": "2020-09-02T12:29:29.796Z",
  "devdoc": {
    "methods": {}
  },
  "userdoc": {
    "methods": {}
  }
}